{
  "_format": "hh-sol-artifact-1",
  "contractName": "CertificateManager",
  "sourceName": "contracts/CertificateManager.sol",
  "abi": [
    {
      "inputs": [],
      "stateMutability": "nonpayable",
      "type": "constructor"
    },
    {
      "anonymous": false,
      "inputs": [
        {
          "indexed": false,
          "internalType": "string",
          "name": "id",
          "type": "string"
        },
        {
          "indexed": true,
          "internalType": "address",
          "name": "recipient",
          "type": "address"
        },
        {
          "indexed": true,
          "internalType": "address",
          "name": "issuedBy",
          "type": "address"
        },
        {
          "indexed": false,
          "internalType": "uint256",
          "name": "timestamp",
          "type": "uint256"
        }
      ],
      "name": "CertificateCreated",
      "type": "event"
    },
    {
      "anonymous": false,
      "inputs": [
        {
          "indexed": false,
          "internalType": "string",
          "name": "id",
          "type": "string"
        },
        {
          "indexed": true,
          "internalType": "address",
          "name": "revokedBy",
          "type": "address"
        },
        {
          "indexed": false,
          "internalType": "uint256",
          "name": "timestamp",
          "type": "uint256"
        }
      ],
      "name": "CertificateRevoked",
      "type": "event"
    },
    {
      "anonymous": false,
      "inputs": [
        {
          "indexed": false,
          "internalType": "string",
          "name": "id",
          "type": "string"
        },
        {
          "indexed": false,
          "internalType": "bool",
          "name": "isValid",
          "type": "bool"
        },
        {
          "indexed": false,
          "internalType": "bool",
          "name": "isRevoked",
          "type": "bool"
        }
      ],
      "name": "CertificateVerified",
      "type": "event"
    },
    {
      "anonymous": false,
      "inputs": [
        {
          "indexed": true,
          "internalType": "address",
          "name": "addr",
          "type": "address"
        },
        {
          "indexed": false,
          "internalType": "string",
          "name": "name",
          "type": "string"
        },
        {
          "indexed": false,
          "internalType": "uint256",
          "name": "timestamp",
          "type": "uint256"
        }
      ],
      "name": "InstitutionRegistered",
      "type": "event"
    },
    {
      "anonymous": false,
      "inputs": [
        {
          "indexed": true,
          "internalType": "address",
          "name": "addr",
          "type": "address"
        },
        {
          "indexed": false,
          "internalType": "uint256",
          "name": "timestamp",
          "type": "uint256"
        }
      ],
      "name": "InstitutionRevoked",
      "type": "event"
    },
    {
      "anonymous": false,
      "inputs": [
        {
          "indexed": false,
          "internalType": "string",
          "name": "id",
          "type": "string"
        },
        {
          "indexed": true,
          "internalType": "address",
          "name": "verifier",
          "type": "address"
        },
        {
          "indexed": false,
          "internalType": "uint256",
          "name": "timestamp",
          "type": "uint256"
        }
      ],
      "name": "VerificationLogged",
      "type": "event"
    },
    {
      "inputs": [
        {
          "internalType": "uint256",
          "name": "",
          "type": "uint256"
        }
      ],
      "name": "allCertificateIds",
      "outputs": [
        {
          "internalType": "string",
          "name": "",
          "type": "string"
        }
      ],
      "stateMutability": "view",
      "type": "function"
    },
    {
      "inputs": [
        {
          "internalType": "string",
          "name": "_id",
          "type": "string"
        },
        {
          "internalType": "string",
          "name": "_issuer",
          "type": "string"
        },
        {
          "internalType": "address",
          "name": "_recipient",
          "type": "address"
        },
        {
          "internalType": "string",
          "name": "_data",
          "type": "string"
        }
      ],
      "name": "generateCertificate",
      "outputs": [],
      "stateMutability": "nonpayable",
      "type": "function"
    },
    {
      "inputs": [
        {
          "internalType": "string",
          "name": "_id",
          "type": "string"
        },
        {
          "internalType": "string",
          "name": "_issuer",
          "type": "string"
        },
        {
          "internalType": "address",
          "name": "_recipient",
          "type": "address"
        },
        {
          "internalType": "string",
          "name": "_data",
          "type": "string"
        },
        {
          "internalType": "bytes32",
          "name": "_photoHash",
          "type": "bytes32"
        },
        {
          "internalType": "bytes",
          "name": "_adminSignature",
          "type": "bytes"
        }
      ],
      "name": "generateCertificateSecure",
      "outputs": [],
      "stateMutability": "nonpayable",
      "type": "function"
    },
    {
      "inputs": [],
      "name": "getCertificateCount",
      "outputs": [
        {
          "internalType": "uint256",
          "name": "",
          "type": "uint256"
        }
      ],
      "stateMutability": "view",
      "type": "function"
    },
    {
      "inputs": [
        {
          "internalType": "uint256",
          "name": "index",
          "type": "uint256"
        }
      ],
      "name": "getInstitutionAt",
      "outputs": [
        {
          "internalType": "address",
          "name": "addr",
          "type": "address"
        },
        {
          "internalType": "string",
          "name": "name",
          "type": "string"
        },
        {
          "internalType": "bool",
          "name": "isActive",
          "type": "bool"
        },
        {
          "internalType": "uint256",
          "name": "registeredAt",
          "type": "uint256"
        }
      ],
      "stateMutability": "view",
      "type": "function"
    },
    {
      "inputs": [],
      "name": "getInstitutionCount",
      "outputs": [
        {
          "internalType": "uint256",
          "name": "",
          "type": "uint256"
        }
      ],
      "stateMutability": "view",
      "type": "function"
    },
    {
      "inputs": [],
      "name": "getMyCertificates",
      "outputs": [
        {
          "internalType": "string",
          "name": "name",
          "type": "string"
        },
        {
          "internalType": "string",
          "name": "phoneNumber",
          "type": "string"
        },
        {
          "internalType": "string[]",
          "name": "certificateIDs",
          "type": "string[]"
        }
      ],
      "stateMutability": "view",
      "type": "function"
    },
    {
      "inputs": [],
      "name": "getOwner",
      "outputs": [
        {
          "internalType": "address",
          "name": "",
          "type": "address"
        }
      ],
      "stateMutability": "view",
      "type": "function"
    },
    {
      "inputs": [
        {
          "internalType": "uint256",
          "name": "",
          "type": "uint256"
        }
      ],
      "name": "institutionList",
      "outputs": [
        {
          "internalType": "address",
          "name": "",
          "type": "address"
        }
      ],
      "stateMutability": "view",
      "type": "function"
    },
    {
      "inputs": [
        {
          "internalType": "address",
          "name": "",
          "type": "address"
        }
      ],
      "name": "institutions",
      "outputs": [
        {
          "internalType": "string",
          "name": "name",
          "type": "string"
        },
        {
          "internalType": "bool",
          "name": "isActive",
          "type": "bool"
        },
        {
          "internalType": "uint256",
          "name": "registeredAt",
          "type": "uint256"
        }
      ],
      "stateMutability": "view",
      "type": "function"
    },
    {
      "inputs": [
        {
          "internalType": "address",
          "name": "_addr",
          "type": "address"
        }
      ],
      "name": "isInstitution",
      "outputs": [
        {
          "internalType": "bool",
          "name": "",
          "type": "bool"
        }
      ],
      "stateMutability": "view",
      "type": "function"
    },
    {
      "inputs": [
        {
          "internalType": "string",
          "name": "_id",
          "type": "string"
        }
      ],
      "name": "logVerification",
      "outputs": [],
      "stateMutability": "nonpayable",
      "type": "function"
    },
    {
      "inputs": [],
      "name": "owner",
      "outputs": [
        {
          "internalType": "address",
          "name": "",
          "type": "address"
        }
      ],
      "stateMutability": "view",
      "type": "function"
    },
    {
      "inputs": [
        {
          "internalType": "address",
          "name": "_addr",
          "type": "address"
        },
        {
          "internalType": "string",
          "name": "_name",
          "type": "string"
        }
      ],
      "name": "registerInstitution",
      "outputs": [],
      "stateMutability": "nonpayable",
      "type": "function"
    },
    {
      "inputs": [
        {
          "internalType": "string",
          "name": "_id",
          "type": "string"
        }
      ],
      "name": "revokeCertificate",
      "outputs": [],
      "stateMutability": "nonpayable",
      "type": "function"
    },
    {
      "inputs": [
        {
          "internalType": "address",
          "name": "_addr",
          "type": "address"
        }
      ],
      "name": "revokeInstitution",
      "outputs": [],
      "stateMutability": "nonpayable",
      "type": "function"
    },
    {
      "inputs": [
        {
          "internalType": "string",
          "name": "_name",
          "type": "string"
        },
        {
          "internalType": "string",
          "name": "_phoneNumber",
          "type": "string"
        }
      ],
      "name": "setRecipientDetails",
      "outputs": [],
      "stateMutability": "nonpayable",
      "type": "function"
    },
    {
      "inputs": [
        {
          "internalType": "string",
          "name": "_id",
          "type": "string"
        }
      ],
      "name": "verifyCertificate",
      "outputs": [
        {
          "internalType": "bool",
          "name": "isValid",
          "type": "bool"
        },
        {
          "internalType": "string",
          "name": "issuer",
          "type": "string"
        },
        {
          "internalType": "string",
          "name": "data",
          "type": "string"
        },
        {
          "internalType": "bool",
          "name": "revoked",
          "type": "bool"
        },
        {
          "internalType": "uint256",
          "name": "revokedAt",
          "type": "uint256"
        },
        {
          "internalType": "bytes32",
          "name": "photoHash",
          "type": "bytes32"
        },
        {
          "internalType": "bytes",
          "name": "adminSignature",
          "type": "bytes"
        },
        {
          "internalType": "address",
          "name": "issuedBy",
          "type": "address"
        },
        {
          "internalType": "uint256",
          "name": "issuedAt",
          "type": "uint256"
        }
      ],
      "stateMutability": "view",
      "type": "function"
    }
  ],
  "bytecode": "0x60806040523480156200001157600080fd5b5033600360006101000a81548173ffffffffffffffffffffffffffffffffffffffff021916908373ffffffffffffffffffffffffffffffffffffffff16021790555060405180606001604052806040518060400160405280600e81526020017f506c6174666f726d2041646d696e000000000000000000000000000000000000815250815260200160011515815260200142815250600260003373ffffffffffffffffffffffffffffffffffffffff1673ffffffffffffffffffffffffffffffffffffffff1681526020019081526020016000206000820151816000019081620000fc91906200040d565b5060208201518160010160006101000a81548160ff021916908315150217905550604082015181600201559050506004339080600181540180825580915050600190039060005260206000200160009091909190916101000a81548173ffffffffffffffffffffffffffffffffffffffff021916908373ffffffffffffffffffffffffffffffffffffffff160217905550620004f4565b600081519050919050565b7f4e487b7100000000000000000000000000000000000000000000000000000000600052604160045260246000fd5b7f4e487b7100000000000000000000000000000000000000000000000000000000600052602260045260246000fd5b600060028204905060018216806200021557607f821691505b6020821081036200022b576200022a620001cd565b5b50919050565b60008190508160005260206000209050919050565b60006020601f8301049050919050565b600082821b905092915050565b600060088302620002957fffffffffffffffffffffffffffffffffffffffffffffffffffffffffffffffff8262000256565b620002a1868362000256565b95508019841693508086168417925050509392505050565b6000819050919050565b6000819050919050565b6000620002ee620002e8620002e284620002b9565b620002c3565b620002b9565b9050919050565b6000819050919050565b6200030a83620002cd565b620003226200031982620002f5565b84845462000263565b825550505050565b600090565b620003396200032a565b62000346818484620002ff565b505050565b5b818110156200036e57620003626000826200032f565b6001810190506200034c565b5050565b601f821115620003bd57620003878162000231565b620003928462000246565b81016020851015620003a2578190505b620003ba620003b18562000246565b8301826200034b565b50505b505050565b600082821c905092915050565b6000620003e260001984600802620003c2565b1980831691505092915050565b6000620003fd8383620003cf565b9150826002028217905092915050565b620004188262000193565b67ffffffffffffffff8111156200043457620004336200019e565b5b620004408254620001fc565b6200044d82828562000372565b600060209050601f83116001811462000485576000841562000470578287015190505b6200047c8582620003ef565b865550620004ec565b601f198416620004958662000231565b60005b82811015620004bf5784890151825560018201915060208501945060208101905062000498565b86831015620004df5784890151620004db601f891682620003cf565b8355505b6001600288020188555050505b505050505050565b6136e380620005046000396000f3fe608060405234801561001057600080fd5b50600436106101155760003560e01c80637c573169116100a25780638da5cb5b116100715780638da5cb5b146102d4578063b2d9767f146102f2578063c7c94d7314610324578063e45c377414610340578063ebc26ac81461037357610115565b80637c573169146102405780638809f72714610260578063893d20e81461027e5780638b23d8751461029c57610115565b80631f6b05f4116100e95780631f6b05f41461019e57806339a28195146101ba5780634aeefaa5146101d6578063579b6a4a146101f25780637b5799ab1461021057610115565b80629f31951461011a5780630331df0714610136578063142e1542146101665780631c67494e14610182575b600080fd5b610134600480360381019061012f9190612499565b6103a3565b005b610150600480360381019061014b9190612540565b6107b0565b60405161015d9190612588565b60405180910390f35b610180600480360381019061017b9190612499565b610809565b005b61019c60048036038101906101979190612540565b610a31565b005b6101b860048036038101906101b391906125a3565b610c8c565b005b6101d460048036038101906101cf91906125ff565b610f03565b005b6101f060048036038101906101eb9190612791565b611317565b005b6101fa61171b565b60405161020791906128a7565b60405180910390f35b61022a600480360381019061022591906128ee565b611728565b604051610237919061299a565b60405180910390f35b6102486117d4565b60405161025793929190612ac8565b60405180910390f35b610268611a1f565b60405161027591906128a7565b60405180910390f35b610286611a2c565b6040516102939190612b23565b60405180910390f35b6102b660048036038101906102b19190612499565b611a56565b6040516102cb99989796959493929190612ba2565b60405180910390f35b6102dc611e95565b6040516102e99190612b23565b60405180910390f35b61030c60048036038101906103079190612540565b611ebb565b60405161031b93929190612c44565b60405180910390f35b61033e60048036038101906103399190612c82565b611f7a565b005b61035a600480360381019061035591906128ee565b612072565b60405161036a9493929190612cfa565b60405180910390f35b61038d600480360381019061038891906128ee565b612226565b60405161039a9190612b23565b60405180910390f35b600080826040516103b49190612d82565b9081526020016040518091039020604051806101600160405290816000820180546103de90612dc8565b80601f016020809104026020016040519081016040528092919081815260200182805461040a90612dc8565b80156104575780601f1061042c57610100808354040283529160200191610457565b820191906000526020600020905b81548152906001019060200180831161043a57829003601f168201915b5050505050815260200160018201805461047090612dc8565b80601f016020809104026020016040519081016040528092919081815260200182805461049c90612dc8565b80156104e95780601f106104be576101008083540402835291602001916104e9565b820191906000526020600020905b8154815290600101906020018083116104cc57829003601f168201915b505050505081526020016002820160009054906101000a900473ffffffffffffffffffffffffffffffffffffffff1673ffffffffffffffffffffffffffffffffffffffff1673ffffffffffffffffffffffffffffffffffffffff16815260200160038201805461055890612dc8565b80601f016020809104026020016040519081016040528092919081815260200182805461058490612dc8565b80156105d15780601f106105a6576101008083540402835291602001916105d1565b820191906000526020600020905b8154815290600101906020018083116105b457829003601f168201915b505050505081526020016004820160009054906101000a900460ff161515151581526020016005820154815260200160068201805461060f90612dc8565b80601f016020809104026020016040519081016040528092919081815260200182805461063b90612dc8565b80156106885780601f1061065d57610100808354040283529160200191610688565b820191906000526020600020905b81548152906001019060200180831161066b57829003601f168201915b505050505081526020016007820160009054906101000a900473ffffffffffffffffffffffffffffffffffffffff1673ffffffffffffffffffffffffffffffffffffffff1673ffffffffffffffffffffffffffffffffffffffff1681526020016007820160149054906101000a900460ff16151515158152602001600882015481526020016009820154815250509050806080015161075c576040517f08c379a000000000000000000000000000000000000000000000000000000000815260040161075390612e45565b60405180910390fd5b3373ffffffffffffffffffffffffffffffffffffffff167fb26046913fbe6a6124edb00a4b805b2f4fa4596ea4f471c7ca6d869ac33f430683426040516107a4929190612e65565b60405180910390a25050565b6000600260008373ffffffffffffffffffffffffffffffffffffffff1673ffffffffffffffffffffffffffffffffffffffff16815260200190815260200160002060010160009054906101000a900460ff169050919050565b6000808260405161081a9190612d82565b908152602001604051809103902090508060040160009054906101000a900460ff1661087b576040517f08c379a000000000000000000000000000000000000000000000000000000000815260040161087290612e45565b60405180910390fd5b8060070160149054906101000a900460ff16156108cd576040517f08c379a00000000000000000000000000000000000000000000000000000000081526004016108c490612ee1565b60405180910390fd5b600360009054906101000a900473ffffffffffffffffffffffffffffffffffffffff1673ffffffffffffffffffffffffffffffffffffffff163373ffffffffffffffffffffffffffffffffffffffff16148061097857508060070160009054906101000a900473ffffffffffffffffffffffffffffffffffffffff1673ffffffffffffffffffffffffffffffffffffffff163373ffffffffffffffffffffffffffffffffffffffff16145b6109b7576040517f08c379a00000000000000000000000000000000000000000000000000000000081526004016109ae90612f73565b60405180910390fd5b60018160070160146101000a81548160ff0219169083151502179055504281600801819055503373ffffffffffffffffffffffffffffffffffffffff167f47958cdd7f8a583eead77c76bf001a8af1605d4494014e49cf9cffbe4f8240cd8342604051610a25929190612e65565b60405180910390a25050565b600360009054906101000a900473ffffffffffffffffffffffffffffffffffffffff1673ffffffffffffffffffffffffffffffffffffffff163373ffffffffffffffffffffffffffffffffffffffff1614610ac1576040517f08c379a0000000000000000000000000000000000000000000000000000000008152600401610ab890613005565b60405180910390fd5b600260008273ffffffffffffffffffffffffffffffffffffffff1673ffffffffffffffffffffffffffffffffffffffff16815260200190815260200160002060010160009054906101000a900460ff16610b50576040517f08c379a0000000000000000000000000000000000000000000000000000000008152600401610b4790613071565b60405180910390fd5b600360009054906101000a900473ffffffffffffffffffffffffffffffffffffffff1673ffffffffffffffffffffffffffffffffffffffff168173ffffffffffffffffffffffffffffffffffffffff1603610be0576040517f08c379a0000000000000000000000000000000000000000000000000000000008152600401610bd7906130dd565b60405180910390fd5b6000600260008373ffffffffffffffffffffffffffffffffffffffff1673ffffffffffffffffffffffffffffffffffffffff16815260200190815260200160002060010160006101000a81548160ff0219169083151502179055508073ffffffffffffffffffffffffffffffffffffffff167f7693c5297d56165e0b840d4eeca43a7aaa87f34e969274d7add9dfa2d2f1246742604051610c8191906128a7565b60405180910390a250565b600360009054906101000a900473ffffffffffffffffffffffffffffffffffffffff1673ffffffffffffffffffffffffffffffffffffffff163373ffffffffffffffffffffffffffffffffffffffff1614610d1c576040517f08c379a0000000000000000000000000000000000000000000000000000000008152600401610d1390613005565b60405180910390fd5b600260008373ffffffffffffffffffffffffffffffffffffffff1673ffffffffffffffffffffffffffffffffffffffff16815260200190815260200160002060010160009054906101000a900460ff1615610dac576040517f08c379a0000000000000000000000000000000000000000000000000000000008152600401610da390613149565b60405180910390fd5b604051806060016040528082815260200160011515815260200142815250600260008473ffffffffffffffffffffffffffffffffffffffff1673ffffffffffffffffffffffffffffffffffffffff1681526020019081526020016000206000820151816000019081610e1e9190613315565b5060208201518160010160006101000a81548160ff021916908315150217905550604082015181600201559050506004829080600181540180825580915050600190039060005260206000200160009091909190916101000a81548173ffffffffffffffffffffffffffffffffffffffff021916908373ffffffffffffffffffffffffffffffffffffffff1602179055508173ffffffffffffffffffffffffffffffffffffffff167f7c0f5cc09780e7fbbb9700dc48f49cdadcdf5d8c8a674b8a8725af30071dc82f8242604051610ef7929190612e65565b60405180910390a25050565b600260003373ffffffffffffffffffffffffffffffffffffffff1673ffffffffffffffffffffffffffffffffffffffff16815260200190815260200160002060010160009054906101000a900460ff16610f92576040517f08c379a0000000000000000000000000000000000000000000000000000000008152600401610f8990613459565b60405180910390fd5b600084604051610fa29190612d82565b908152602001604051809103902060040160009054906101000a900460ff1615611001576040517f08c379a0000000000000000000000000000000000000000000000000000000008152600401610ff8906134c5565b60405180910390fd5b60006040518061016001604052808681526020018581526020018473ffffffffffffffffffffffffffffffffffffffff1681526020018381526020016001151581526020016000801b81526020016040518060200160405280600081525081526020013373ffffffffffffffffffffffffffffffffffffffff16815260200160001515815260200160008152602001428152509050806000866040516110a79190612d82565b908152602001604051809103902060008201518160000190816110ca9190613315565b5060208201518160010190816110e09190613315565b5060408201518160020160006101000a81548173ffffffffffffffffffffffffffffffffffffffff021916908373ffffffffffffffffffffffffffffffffffffffff160217905550606082015181600301908161113d9190613315565b5060808201518160040160006101000a81548160ff02191690831515021790555060a0820151816005015560c082015181600601908161117d9190613540565b5060e08201518160070160006101000a81548173ffffffffffffffffffffffffffffffffffffffff021916908373ffffffffffffffffffffffffffffffffffffffff1602179055506101008201518160070160146101000a81548160ff02191690831515021790555061012082015181600801556101408201518160090155905050600160008473ffffffffffffffffffffffffffffffffffffffff1673ffffffffffffffffffffffffffffffffffffffff168152602001908152602001600020600201859080600181540180825580915050600190039060005260206000200160009091909190915090816112739190613315565b506005859080600181540180825580915050600190039060005260206000200160009091909190915090816112a89190613315565b503373ffffffffffffffffffffffffffffffffffffffff168373ffffffffffffffffffffffffffffffffffffffff167fda7ba135b3b0f4de956b862bb56244d8c9bf9db779e84afc78b0cd5e38bfd7338742604051611308929190612e65565b60405180910390a35050505050565b600260003373ffffffffffffffffffffffffffffffffffffffff1673ffffffffffffffffffffffffffffffffffffffff16815260200190815260200160002060010160009054906101000a900460ff166113a6576040517f08c379a000000000000000000000000000000000000000000000000000000000815260040161139d90613459565b60405180910390fd5b6000866040516113b69190612d82565b908152602001604051809103902060040160009054906101000a900460ff1615611415576040517f08c379a000000000000000000000000000000000000000000000000000000000815260040161140c906134c5565b60405180910390fd5b60006040518061016001604052808881526020018781526020018673ffffffffffffffffffffffffffffffffffffffff1681526020018581526020016001151581526020018481526020018381526020013373ffffffffffffffffffffffffffffffffffffffff16815260200160001515815260200160008152602001428152509050806000886040516114a99190612d82565b908152602001604051809103902060008201518160000190816114cc9190613315565b5060208201518160010190816114e29190613315565b5060408201518160020160006101000a81548173ffffffffffffffffffffffffffffffffffffffff021916908373ffffffffffffffffffffffffffffffffffffffff160217905550606082015181600301908161153f9190613315565b5060808201518160040160006101000a81548160ff02191690831515021790555060a0820151816005015560c082015181600601908161157f9190613540565b5060e08201518160070160006101000a81548173ffffffffffffffffffffffffffffffffffffffff021916908373ffffffffffffffffffffffffffffffffffffffff1602179055506101008201518160070160146101000a81548160ff02191690831515021790555061012082015181600801556101408201518160090155905050600160008673ffffffffffffffffffffffffffffffffffffffff1673ffffffffffffffffffffffffffffffffffffffff168152602001908152602001600020600201879080600181540180825580915050600190039060005260206000200160009091909190915090816116759190613315565b506005879080600181540180825580915050600190039060005260206000200160009091909190915090816116aa9190613315565b503373ffffffffffffffffffffffffffffffffffffffff168573ffffffffffffffffffffffffffffffffffffffff167fda7ba135b3b0f4de956b862bb56244d8c9bf9db779e84afc78b0cd5e38bfd733894260405161170a929190612e65565b60405180910390a350505050505050565b6000600480549050905090565b6005818154811061173857600080fd5b90600052602060002001600091509050805461175390612dc8565b80601f016020809104026020016040519081016040528092919081815260200182805461177f90612dc8565b80156117cc5780601f106117a1576101008083540402835291602001916117cc565b820191906000526020600020905b8154815290600101906020018083116117af57829003601f168201915b505050505081565b60608060606000600160003373ffffffffffffffffffffffffffffffffffffffff1673ffffffffffffffffffffffffffffffffffffffff168152602001908152602001600020905080600001816001018260020182805461183490612dc8565b80601f016020809104026020016040519081016040528092919081815260200182805461186090612dc8565b80156118ad5780601f10611882576101008083540402835291602001916118ad565b820191906000526020600020905b81548152906001019060200180831161189057829003601f168201915b505050505092508180546118c090612dc8565b80601f01602080910402602001604051908101604052809291908181526020018280546118ec90612dc8565b80156119395780601f1061190e57610100808354040283529160200191611939565b820191906000526020600020905b81548152906001019060200180831161191c57829003601f168201915b5050505050915080805480602002602001604051908101604052809291908181526020016000905b82821015611a0d57838290600052602060002001805461198090612dc8565b80601f01602080910402602001604051908101604052809291908181526020018280546119ac90612dc8565b80156119f95780601f106119ce576101008083540402835291602001916119f9565b820191906000526020600020905b8154815290600101906020018083116119dc57829003601f168201915b505050505081526020019060010190611961565b50505050905093509350935050909192565b6000600580549050905090565b6000600360009054906101000a900473ffffffffffffffffffffffffffffffffffffffff16905090565b6000606080600080600060606000806000808b604051611a769190612d82565b908152602001604051809103902060405180610160016040529081600082018054611aa090612dc8565b80601f0160208091040260200160405190810160405280929190818152602001828054611acc90612dc8565b8015611b195780601f10611aee57610100808354040283529160200191611b19565b820191906000526020600020905b815481529060010190602001808311611afc57829003601f168201915b50505050508152602001600182018054611b3290612dc8565b80601f0160208091040260200160405190810160405280929190818152602001828054611b5e90612dc8565b8015611bab5780601f10611b8057610100808354040283529160200191611bab565b820191906000526020600020905b815481529060010190602001808311611b8e57829003601f168201915b505050505081526020016002820160009054906101000a900473ffffffffffffffffffffffffffffffffffffffff1673ffffffffffffffffffffffffffffffffffffffff1673ffffffffffffffffffffffffffffffffffffffff168152602001600382018054611c1a90612dc8565b80601f0160208091040260200160405190810160405280929190818152602001828054611c4690612dc8565b8015611c935780601f10611c6857610100808354040283529160200191611c93565b820191906000526020600020905b815481529060010190602001808311611c7657829003601f168201915b505050505081526020016004820160009054906101000a900460ff1615151515815260200160058201548152602001600682018054611cd190612dc8565b80601f0160208091040260200160405190810160405280929190818152602001828054611cfd90612dc8565b8015611d4a5780601f10611d1f57610100808354040283529160200191611d4a565b820191906000526020600020905b815481529060010190602001808311611d2d57829003601f168201915b505050505081526020016007820160009054906101000a900473ffffffffffffffffffffffffffffffffffffffff1673ffffffffffffffffffffffffffffffffffffffff1673ffffffffffffffffffffffffffffffffffffffff1681526020016007820160149054906101000a900460ff16151515158152602001600882015481526020016009820154815250509050806080015115611e2c578060800151816020015182606001518361010001518461012001518560a001518660c001518760e0015188610140015199509950995099509950995099509950995050611e88565b60008060008060001b600080604051806020016040528060008152509493929190604051806020016040528060008152509493929190604051806020016040528060008152509190995099509950995099509950995099509950505b9193959799909294969850565b600360009054906101000a900473ffffffffffffffffffffffffffffffffffffffff1681565b6002602052806000526040600020600091509050806000018054611ede90612dc8565b80601f0160208091040260200160405190810160405280929190818152602001828054611f0a90612dc8565b8015611f575780601f10611f2c57610100808354040283529160200191611f57565b820191906000526020600020905b815481529060010190602001808311611f3a57829003601f168201915b5050505050908060010160009054906101000a900460ff16908060020154905083565b6040518060600160405280838152602001828152602001600067ffffffffffffffff811115611fac57611fab61236e565b5b604051908082528060200260200182016040528015611fdf57816020015b6060815260200190600190039081611fca5790505b50815250600160003373ffffffffffffffffffffffffffffffffffffffff1673ffffffffffffffffffffffffffffffffffffffff16815260200190815260200160002060008201518160000190816120379190613315565b50602082015181600101908161204d9190613315565b50604082015181600201908051906020019061206a929190612265565b509050505050565b6000606060008060048054905085106120c0576040517f08c379a00000000000000000000000000000000000000000000000000000000081526004016120b79061365e565b60405180910390fd5b600485815481106120d4576120d361367e565b5b9060005260206000200160009054906101000a900473ffffffffffffffffffffffffffffffffffffffff1693506000600260008673ffffffffffffffffffffffffffffffffffffffff1673ffffffffffffffffffffffffffffffffffffffff16815260200190815260200160002060405180606001604052908160008201805461215d90612dc8565b80601f016020809104026020016040519081016040528092919081815260200182805461218990612dc8565b80156121d65780601f106121ab576101008083540402835291602001916121d6565b820191906000526020600020905b8154815290600101906020018083116121b957829003601f168201915b505050505081526020016001820160009054906101000a900460ff161515151581526020016002820154815250509050848160000151826020015183604001519450945094509450509193509193565b6004818154811061223657600080fd5b906000526020600020016000915054906101000a900473ffffffffffffffffffffffffffffffffffffffff1681565b8280548282559060005260206000209081019282156122ad579160200282015b828111156122ac57825182908161229c9190613315565b5091602001919060010190612285565b5b5090506122ba91906122be565b5090565b5b808211156122de57600081816122d591906122e2565b506001016122bf565b5090565b5080546122ee90612dc8565b6000825580601f10612300575061231f565b601f01602090049060005260206000209081019061231e9190612322565b5b50565b5b8082111561233b576000816000905550600101612323565b5090565b6000604051905090565b600080fd5b600080fd5b600080fd5b600080fd5b6000601f19601f8301169050919050565b7f4e487b7100000000000000000000000000000000000000000000000000000000600052604160045260246000fd5b6123a68261235d565b810181811067ffffffffffffffff821117156123c5576123c461236e565b5b80604052505050565b60006123d861233f565b90506123e4828261239d565b919050565b600067ffffffffffffffff8211156124045761240361236e565b5b61240d8261235d565b9050602081019050919050565b82818337600083830152505050565b600061243c612437846123e9565b6123ce565b90508281526020810184848401111561245857612457612358565b5b61246384828561241a565b509392505050565b600082601f8301126124805761247f612353565b5b8135612490848260208601612429565b91505092915050565b6000602082840312156124af576124ae612349565b5b600082013567ffffffffffffffff8111156124cd576124cc61234e565b5b6124d98482850161246b565b91505092915050565b600073ffffffffffffffffffffffffffffffffffffffff82169050919050565b600061250d826124e2565b9050919050565b61251d81612502565b811461252857600080fd5b50565b60008135905061253a81612514565b92915050565b60006020828403121561255657612555612349565b5b60006125648482850161252b565b91505092915050565b60008115159050919050565b6125828161256d565b82525050565b600060208201905061259d6000830184612579565b92915050565b600080604083850312156125ba576125b9612349565b5b60006125c88582860161252b565b925050602083013567ffffffffffffffff8111156125e9576125e861234e565b5b6125f58582860161246b565b9150509250929050565b6000806000806080858703121561261957612618612349565b5b600085013567ffffffffffffffff8111156126375761263661234e565b5b6126438782880161246b565b945050602085013567ffffffffffffffff8111156126645761266361234e565b5b6126708782880161246b565b93505060406126818782880161252b565b925050606085013567ffffffffffffffff8111156126a2576126a161234e565b5b6126ae8782880161246b565b91505092959194509250565b6000819050919050565b6126cd816126ba565b81146126d857600080fd5b50565b6000813590506126ea816126c4565b92915050565b600067ffffffffffffffff82111561270b5761270a61236e565b5b6127148261235d565b9050602081019050919050565b600061273461272f846126f0565b6123ce565b9050828152602081018484840111156127505761274f612358565b5b61275b84828561241a565b509392505050565b600082601f83011261277857612777612353565b5b8135612788848260208601612721565b91505092915050565b60008060008060008060c087890312156127ae576127ad612349565b5b600087013567ffffffffffffffff8111156127cc576127cb61234e565b5b6127d889828a0161246b565b965050602087013567ffffffffffffffff8111156127f9576127f861234e565b5b61280589828a0161246b565b955050604061281689828a0161252b565b945050606087013567ffffffffffffffff8111156128375761283661234e565b5b61284389828a0161246b565b935050608061285489828a016126db565b92505060a087013567ffffffffffffffff8111156128755761287461234e565b5b61288189828a01612763565b9150509295509295509295565b6000819050919050565b6128a18161288e565b82525050565b60006020820190506128bc6000830184612898565b92915050565b6128cb8161288e565b81146128d657600080fd5b50565b6000813590506128e8816128c2565b92915050565b60006020828403121561290457612903612349565b5b6000612912848285016128d9565b91505092915050565b600081519050919050565b600082825260208201905092915050565b60005b8381101561295557808201518184015260208101905061293a565b60008484015250505050565b600061296c8261291b565b6129768185612926565b9350612986818560208601612937565b61298f8161235d565b840191505092915050565b600060208201905081810360008301526129b48184612961565b905092915050565b600081519050919050565b600082825260208201905092915050565b6000819050602082019050919050565b600082825260208201905092915050565b6000612a048261291b565b612a0e81856129e8565b9350612a1e818560208601612937565b612a278161235d565b840191505092915050565b6000612a3e83836129f9565b905092915050565b6000602082019050919050565b6000612a5e826129bc565b612a6881856129c7565b935083602082028501612a7a856129d8565b8060005b85811015612ab65784840389528151612a978582612a32565b9450612aa283612a46565b925060208a01995050600181019050612a7e565b50829750879550505050505092915050565b60006060820190508181036000830152612ae28186612961565b90508181036020830152612af68185612961565b90508181036040830152612b0a8184612a53565b9050949350505050565b612b1d81612502565b82525050565b6000602082019050612b386000830184612b14565b92915050565b612b47816126ba565b82525050565b600081519050919050565b600082825260208201905092915050565b6000612b7482612b4d565b612b7e8185612b58565b9350612b8e818560208601612937565b612b978161235d565b840191505092915050565b600061012082019050612bb8600083018c612579565b8181036020830152612bca818b612961565b90508181036040830152612bde818a612961565b9050612bed6060830189612579565b612bfa6080830188612898565b612c0760a0830187612b3e565b81810360c0830152612c198186612b69565b9050612c2860e0830185612b14565b612c36610100830184612898565b9a9950505050505050505050565b60006060820190508181036000830152612c5e8186612961565b9050612c6d6020830185612579565b612c7a6040830184612898565b949350505050565b60008060408385031215612c9957612c98612349565b5b600083013567ffffffffffffffff811115612cb757612cb661234e565b5b612cc38582860161246b565b925050602083013567ffffffffffffffff811115612ce457612ce361234e565b5b612cf08582860161246b565b9150509250929050565b6000608082019050612d0f6000830187612b14565b8181036020830152612d218186612961565b9050612d306040830185612579565b612d3d6060830184612898565b95945050505050565b600081905092915050565b6000612d5c8261291b565b612d668185612d46565b9350612d76818560208601612937565b80840191505092915050565b6000612d8e8284612d51565b915081905092915050565b7f4e487b7100000000000000000000000000000000000000000000000000000000600052602260045260246000fd5b60006002820490506001821680612de057607f821691505b602082108103612df357612df2612d99565b5b50919050565b7f436572746966696361746520646f6573206e6f74206578697374000000000000600082015250565b6000612e2f601a83612926565b9150612e3a82612df9565b602082019050919050565b60006020820190508181036000830152612e5e81612e22565b9050919050565b60006040820190508181036000830152612e7f8185612961565b9050612e8e6020830184612898565b9392505050565b7f436572746966696361746520697320616c7265616479207265766f6b65640000600082015250565b6000612ecb601e83612926565b9150612ed682612e95565b602082019050919050565b60006020820190508181036000830152612efa81612ebe565b9050919050565b7f4f6e6c7920746865206f776e6572206f722069737375696e6720696e7374697460008201527f7574696f6e2063616e207265766f6b6500000000000000000000000000000000602082015250565b6000612f5d603083612926565b9150612f6882612f01565b604082019050919050565b60006020820190508181036000830152612f8c81612f50565b9050919050565b7f4f6e6c7920746865206f776e65722063616e20706572666f726d20746869732060008201527f616374696f6e0000000000000000000000000000000000000000000000000000602082015250565b6000612fef602683612926565b9150612ffa82612f93565b604082019050919050565b6000602082019050818103600083015261301e81612fe2565b9050919050565b7f496e737469747574696f6e206973206e6f742061637469766500000000000000600082015250565b600061305b601983612926565b915061306682613025565b602082019050919050565b6000602082019050818103600083015261308a8161304e565b9050919050565b7f43616e6e6f74207265766f6b6520746865206f776e6572000000000000000000600082015250565b60006130c7601783612926565b91506130d282613091565b602082019050919050565b600060208201905081810360008301526130f6816130ba565b9050919050565b7f496e737469747574696f6e20616c726561647920726567697374657265640000600082015250565b6000613133601e83612926565b915061313e826130fd565b602082019050919050565b6000602082019050818103600083015261316281613126565b9050919050565b60008190508160005260206000209050919050565b60006020601f8301049050919050565b600082821b905092915050565b6000600883026131cb7fffffffffffffffffffffffffffffffffffffffffffffffffffffffffffffffff8261318e565b6131d5868361318e565b95508019841693508086168417925050509392505050565b6000819050919050565b600061321261320d6132088461288e565b6131ed565b61288e565b9050919050565b6000819050919050565b61322c836131f7565b61324061323882613219565b84845461319b565b825550505050565b600090565b613255613248565b613260818484613223565b505050565b5b818110156132845761327960008261324d565b600181019050613266565b5050565b601f8211156132c95761329a81613169565b6132a38461317e565b810160208510156132b2578190505b6132c66132be8561317e565b830182613265565b50505b505050565b600082821c905092915050565b60006132ec600019846008026132ce565b1980831691505092915050565b600061330583836132db565b9150826002028217905092915050565b61331e8261291b565b67ffffffffffffffff8111156133375761333661236e565b5b6133418254612dc8565b61334c828285613288565b600060209050601f83116001811461337f576000841561336d578287015190505b61337785826132f9565b8655506133df565b601f19841661338d86613169565b60005b828110156133b557848901518255600182019150602085019450602081019050613390565b868310156133d257848901516133ce601f8916826132db565b8355505b6001600288020188555050505b505050505050565b7f4f6e6c79207265676973746572656420696e737469747574696f6e732063616e60008201527f20706572666f726d207468697320616374696f6e000000000000000000000000602082015250565b6000613443603483612926565b915061344e826133e7565b604082019050919050565b6000602082019050818103600083015261347281613436565b9050919050565b7f436572746966696361746520494420616c726561647920657869737473000000600082015250565b60006134af601d83612926565b91506134ba82613479565b602082019050919050565b600060208201905081810360008301526134de816134a2565b9050919050565b60008190508160005260206000209050919050565b601f82111561353b5761350c816134e5565b6135158461317e565b81016020851015613524578190505b6135386135308561317e565b830182613265565b50505b505050565b61354982612b4d565b67ffffffffffffffff8111156135625761356161236e565b5b61356c8254612dc8565b6135778282856134fa565b600060209050601f8311600181146135aa5760008415613598578287015190505b6135a285826132f9565b86555061360a565b601f1984166135b8866134e5565b60005b828110156135e0578489015182556001820191506020850194506020810190506135bb565b868310156135fd57848901516135f9601f8916826132db565b8355505b6001600288020188555050505b505050505050565b7f496e646578206f7574206f662072616e67650000000000000000000000000000600082015250565b6000613648601283612926565b915061365382613612565b602082019050919050565b600060208201905081810360008301526136778161363b565b9050919050565b7f4e487b7100000000000000000000000000000000000000000000000000000000600052603260045260246000fdfea26469706673582212200333bd91082cd12526e97ed57b625cae7c7a366df141978a53ffd9ac437e63c864736f6c63430008180033",
  "linkReferences": {},
  "deployedLinkReferences": {}
}